:02000002D0002C
:1040000000400D0034540D00000006000C000501B6
:084010000401BD0B00000000DB
:04401800EC510D005A
:10401C0009480A49884208B505D0094A824202D0AB
:10402C00121A01F09BF80748074A0021121A01F0F6
:10403C00A3F8014808BD00BFC8E50320A4530D0038
:10404C0030E6032030E60320F0E7032070B5074E7E
:10405C00074C00F0E9FCA41BA4080025A54200D1E4
:10406C0070BD56F8043B98470135F7E77C530D00BB
:10407C00A0530D0000F038B808B500F05BF8BDE8AF
:10408C00084000F093BC00F0A1BA00F0A7BA007889
:10409C00B0FA80F04009704701230370704710B5E7
:1040AC000446006808B100F099FA204610BD0000E3
:1040BC0013B50B4C2178BFF35B8F11F001010BD1C1
:1040CC0020460191FFF7E3FF019928B1054800F064
:1040DC00D9FA2046FFF7E0FF024802B010BD00BF3E
:1040EC0034E6032038E6032008B50121052000F052
:1040FC00B3FF00F09FFD4FF4165100F08FFDFFF75A
:10410C00D7FF0B4A012100F019FBFFF7D1FF01216A
:10411C0000F0D8FAFFF7CCFF002100F0E6FAFFF729
:10412C00C7FFBDE808400522002100F0B5BA00BF6A
:10413C0040420F0037B500F07DFD0368204C5B69F1
:10414C009847C0B2A0F13003012B207013D8002186
:10415C00052000F092FFFFF7ABFF002300932146F0
:10416C00184A012300F01CFB0121052003B0BDE817
:10417C00304000F082BF3F281FD10021114D052097
:10418C0000F07BFFFFF794FF002300932A460123E6
:10419C00214600F005FB0121052000F06EFF2B7875
:1041AC003BB900F047FD302103B0BDE8304000F0D2
:1041BC0086BB00F03FFD3121F6E703B030BD00BFF8
:1041CC004DE603204CE6032038B50A4C0A4BA3609D
:1041DC00002503202560A580A57100F06BF9074927
:1041EC00074A204600F0A2FF29460120BDE83840CE
:1041FC0000F068B940E603200000FFFFAB400D0063
:10420C0030E6032008B5024B1B689B68019308BD80
:10421C006802030008B5024B1B68DB68019308BDFC
:10422C006802030008B5024B1B689B68019308BD2C
:10423C002C02030008B5024B1B68DB68019308BD18
:10424C002C02030008B5024B1B681B69019308BDC7
:10425C002C02030008B5024B1B685B68019308BD78
:10426C001802030008B5024B1B685B69019308BD7B
:10427C001802030008B5024B1B685B6C019308BD68
:10428C004802030008B5024B1B689B6C019308BDE8
:10429C004802030008B5024B1B685B69019308BD1B
:1042AC006402030008B5024B1B681B68019308BD30
:1042BC003C02030008B5024B1B68DB68019308BD88
:1042CC003C02030008B5024B1B681B69019308BD37
:1042DC003C02030008B5024B1B685B69019308BDE7
:1042EC003C02030008B5024B1B689B69019308BD97
:1042FC003C02030008B5024B1B68DB69019308BD47
:10430C003C02030008B5024B1B681B6A019308BDF5
:10431C003C02030008B5024B1B689B6A019308BD65
:10432C003C02030008B5024B1B681B6A019308BDD5
:10433C002802030008B5024B1B685B6A019308BD99
:10434C002802030008B5024B1B689B6A019308BD49
:10435C002802030008B5024B1B68DB6A019308BDF9
:10436C002802030008B5024B1B681B6B019308BDA8
:10437C002802030008B5024B1B685B6B019308BD58
:10438C002802030008B5024B1B681B6C019308BD87
:10439C002802030008B5024B1B689B68019308BDFB
:1043AC003002030008B5024B1B68DB68019308BDA3
:1043BC003002030008B5024B1B681B69019308BD52
:1043CC003002030008B5024B1B68DB69019308BD82
:1043DC003002030008B5024B1B681B6A019308BD31
:1043EC003002030008B5024B1B685B6A019308BDE1
:1043FC003002030008B5024B1B689B6A019308BD91
:10440C003002030008B5024B1B68DB6A019308BD40
:10441C003002030008B5024B1B689B6B019308BD6F
:10442C003002030008B5024B1B681B6C019308BDDE
:10443C003002030008B5024B1B685B6C019308BD8E
:10444C003002030008B5024B1B681B68019308BDC2
:10445C004C02030008B5024B1B685B68019308BD56
:10446C004C02030008B5024B1B681B69019308BD85
:10447C004C02030008B5024B1B685B69019308BD35
:10448C004C02030008B5024B1B689B69019308BDE5
:10449C004C02030008B5024B1B68DB69019308BD95
:1044AC004C02030008B5024B1B681B6A019308BD44
:1044BC004C02030008B5024B1B685B68019308BDF6
:1044CC002002030008B5024B1B68DB6A019308BD90
:1044DC002002030008B5034B1B68D3F88830019306
:1044EC0008BD00002002030008B5034B1B68D3F87D
:1044FC009430019308BD00002002030008B5024B64
:10450C001B685B68019308BD4002030008B5024BB1
:10451C001B689B68019308BD4002030008B5024B61
:10452C001B68DB68019308BD4002030008B5024B11
:10453C001B681B69019308BD4002030008B5024BC0
:10454C001B685B69019308BD4002030008B5024B70
:10455C001B689B69019308BD4002030008B5024B20
:10456C001B68DB69019308BD4002030008B5024BD0
:10457C001B681B6A019308BD4002030008B5024B7F
:10458C001B681B6B019308BD4002030008B5024B6E
:10459C001B685B6B019308BD4002030008B5024B1E
:1045AC001B681B6C019308BD4002030008B5024B4D
:1045BC001B685B6C019308BD4002030008B5024BFD
:1045CC001B68DB6B019308BD4402030008B5024B6A
:1045DC001B681B68019308BD1C02030008B5024B45
:1045EC001B685B68019308BD1C02030008B5024BF5
:1045FC001B685B6C019308BD1C0203000022406821
:10460C001146FFF7B3BF002240681146FFF7BEBF4B
:10461C0040680022FFF7B2BF4068002281F0010120
:10462C00FFF79CBF002340681A461946FFF78EBF60
:10463C00002340681A461946FFF780BF00224068E5
:10464C001146FFF773BF002240681146FFF75EBFAB
:10465C00406800220221FFF761BF002340681A4620
:10466C00FFF74CBF024B03225A60024A1A60704794
:10467C0050E6032008520D000021FFF7D3BE0021A5
:10468C00FFF7D8BE10B5044608462170FFF79AFE16
:10469C0000236360204610BD13B504460078CDE9B5
:1046AC000021FFF7E9FFDDE90021034640B920783E
:1046BC00FFF7A8FE207802B0BDE81040FFF7DFBF7F
:1046CC0002B010BD13B5044600780191FFF7D4FF7A
:1046DC00019940B92078FFF75DFE207802B0BDE863
:1046EC001040FFF7CCBF02B010BD13B504460078E4
:1046FC000191FFF7C1FF019940B92078FFF752FEF5
:10470C00207802B0BDE81040FFF7B9BF02B010BD71
:10471C00400830B51860002418688842E5B206D904
:10472C000134082C02D040081860F5E70725024B2D
:10473C005B5D137030BD00BF3C520D002DE9F041A4
:10474C0088B000230446007802930E461746FFF704
:10475C0093FF054600BB94F800800146142203A881
:10476C0000F00AFD0B232A4603A94046ADF80C3095
:10477C00FFF738FE04988DF8075002AB0DF10702D5
:10478C0007FB06F1FFF7C4FF20789DF80710FFF731
:10479C0011FE2078FFF773FF029808B0BDE8F08196
:1047AC0030B587B004460A9D00950078FFF722FECD
:1047BC003DB9207802A9FFF72DFE9DF81430DB07D8
:1047CC00F7D407B030BD000010B5094B094C0222DC
:1047DC0000201A60084B2060A080A071A360FFF736
:1047EC0069FE2046054A0649BDE8104000F09EBC13
:1047FC0064E6032058E603200000FFFF30E60320A8
:10480C00AB400D0010B50446006808B1FFF73AFD47
:10481C00204610BD10B58368044613B1032201462F
:10482C009847204610BD000010B5064C00232046CA
:10483C002360FFF71FFD2046034A0449BDE81040E2
:10484C0000F074BC68E6032030E6032011480D002C
:10485C00F8B506460D468F180024BD420CD03368BF
:10486C0015F8011B9B6830469847031E01DB1C445E
:10487C00F3E7002C08BF1C462046F8BD13B50446D0
:10488C00084659B1019100F0A3FC23680199DB683B
:10489C000246204602B0BDE81040184702B010BDD9
:1048AC0003689B68184738B50D210546FFF7F8FFDC
:1048BC000A2104462846FFF7F3FF204438BD38B5DB
:1048CC000546FFF7EDFF04462846FFF7ECFF2044B2
:1048DC0038BD30B58BB000238DF82430012A98BF39
:1048EC000A2209AC0D46B1FBF2F101FB125303F0A5
:1048FC00FF03092B94BF30333733DBB2AA4204F8E1
:10490C00013DEFD92146FFF7B9FF0BB030BD0023B5
:10491C0040681A461946FFF711BE0000014B024AC7
:10492C001A6070476CE6032044520D00024B1A6863
:10493C00024B1A60704700BFC8E5032070E60320E5
:10494C0010B50446FFF766FF204610BD0348044A25
:10495C0004490023836000F0E9BB00BF74E6032028
:10496C0030E603204D490D00014B1860704700BF25
:10497C00CCE5032008B50B4B43B100F05BF90368A1
:10498C001B699847002801DDAFF30080064B43B14B
:10499C0000F0CEF903681B699847002801DDAFF3DE
:1049AC00008008BD000000000000000008B5FFF703
:1049BC00E1FFFFF757FC014B186008BDD4E703205B
:1049CC000248034A0349121A00F0C8BB00F4032042
:1049DC0004F40320A0530D0007B5002300931A46DE
:1049EC006FF07701FFF780FD03B05DF804FB00006A
:1049FC0007B543880A2B08D0502B0BD1094B1B68E9
:104A0C004BB103B05DF804EB1847FFF7E5FF03B0BB
:104A1C005DF804FB002300931A466FF07701FFF753
:104A2C0063FDF4E788E6032038B5124C1248134DA9
:104A3C000021FFF7DBFD2368AB42114B0CBF0122B9
:104A4C0000221A7002D0FFF7BBFF2560FFF702FCB3
:104A5C00044600F099FB0B4B13B12046AFF30080DA
:104A6C0000210848FFF7AAFDBDE8384006480021A0
:104A7C00FFF730BD00F4032075490D001E1C279A6A
:104A8C0084E6032000000000FD490D00704710B5BE
:104A9C001821044600F04FFB204610BDF0B5037DF5
:104AAC00062B8DB00E4600F104074FF0000412D017
:104ABC0000F1080515F8011D0A223046FFF709FF21
:104ACC00AF42044419D0002CF4D02E213046FFF70D
:104ADC00E7FE0444EEE72F236A4639460A208DF898
:104AEC000040FFF7D7FB684600F072FB33680246C4
:104AFC00DB68694630469847044620460DB0F0BD49
:104B0C0010B5054B0446112240F8043B002100F07F
:104B1C0033FB204610BD00BF6C520D000346074A04
:104B2C0010B543F8042B01F1100251F8044B43F873
:104B3C00044B9142F9D10A781A7010BD6C520D00D9
:104B4C0010B59DF8084044EA032343EA024242EAC6
:104B5C00016104234160037510BD000013B5054BC2
:104B6C000360CB7800938B784A780978FFF7E8FFDD
:104B7C0002B010BD6C520D0041747047704708B5FF
:104B8C000021007CFFF77EFC40EAE07008BD08B510
:104B9C000121007CFFF776FC40EAE07008BD08B507
:104BAC00007CFFF767FC20EAE07008BD08B5007CCC
:104BBC00FFF758FC20EAE07008BD13B50446007CF2
:104BCC000191FFF757FC0028019901DC607C20B1B2
:104BDC00207CFFF75FFC20EAE07002B010BD007C87
:104BEC00FFF760BC10B51421044600F0A4FA20466F
:104BFC0010BD000010B54FF47A730446084600212E
:104C0C00C4E90113044B236001232074637411461F
:104C1C00FFF718FC204610BD80520D00007C0022CE
:104C2C00FFF718BC10B514220446002100F0A4FABA
:104C3C00204610BD10B5104C88B003A8FFF7F2FF4A
:104C4C002178BFF35B8F11F0010111D12046019146
:104C5C00FFF71DFA019958B103AA0848FFF7CAFFDC
:104C6C002046FFF719FA064A0649044800F05EFA96
:104C7C00024808B010BD00BF8CE6032090E603206C
:104C8C0030E60320894B0D0070474174704708B51E
:104C9C00007CFFF73FFB20EAE07008BD08B5007C04
:104CAC00FFF710FB20EAE07008BD08B5007CFFF7A9
:104CBC0019FB40EAE07008BD08B5007CFFF70AFB61
:104CCC0040EAE07008BD007CFFF714BB37B5457CAB
:104CDC0004462DB1207C03B0BDE83040FFF7EABAA2
:104CEC00007C0191FFF716FB00280199F2DC2846A5
:104CFC0003B030BD10B51421044600F01CFA204658
:104D0C0010BD000010B54FF0000C044608461146CB
:104D1C004FF47A72C4E901C2044A22600122207461
:104D2C0062741A46FFF7BEFA204610BDB0520D0051
:104D3C0013B50E4C2178BFF35B8F11F0010112D12A
:104D4C0020460191FFF7A3F9019960B1084A094B7C
:104D5C000948FFF7D7FF2046FFF79EF9074A084995
:104D6C00054800F0E3F9044802B010BDA4E60320A6
:104D7C00A8E603202CE70320B0E7032030E603204D
:104D8C00954C0D007047F8B5064615460C468F1825
:104D9C00BC4206D0336814F8011B9B683046984718
:104DAC00F6E72846F8BD007C0022FFF7BBBA007C72
:104DBC000021FFF7BFBA007C0021FFF7C3BA007CCB
:104DCC000021FFF7C7BA007C0021FFF7CBBA10B562
:104DDC001421044600F0AFF9204610BD10B54FF475
:104DEC007A73044608460021C4E90113034B23607F
:104DFC0020741146FFF7C6FA204610BDE0520D0094
:104E0C00002240681146FFF791BB00224068114612
:104E1C00FFF7ACBB002240681146FFF7B7BB4068F8
:104E2C000022FFF7ABBB4068002281F00101FFF7C5
:104E3C0095BB002340681A461946FFF787BB002232
:104E4C0040681146FFF762BB406800220221FFF761
:104E5C0065BB002340681A46FFF750BB024B042287
:104E6C005A60024A1A607047C4E7032008530D00C9
:104E7C00002340681A46FFF741BB4068002202211C
:104E8C00FFF74CBB002240681146FFF73FBB0022E6
:104E9C0040681146FFF74ABB002340681A46194682
:104EAC00FFF74CBB002340681A461946FFF74EBB70
:104EBC0040680021FFF772BB40680021FFF776BB0A
:104ECC004068002281F00101FFF748BB40680022D6
:104EDC00FFF754BB002240681146FFF757BB002276
:104EEC0040681146FFF742BB2DE9F043002495B012
:104EFC0016460D460746FFF703FE214618220EA85C
:104F0C00009400F039F94023CDE90C3421466B466E
:104F1C000CAA3046FFF77EF9044600284CD1024615
:104F2C0001216868FFF702FB02218046224668686F
:104F3C00FFF7FCFA009E81462146002E3CD000294A
:104F4C003AD17368022B03D00A2B11D0F669F4E71F
:104F5C00B8F1000F0AD0716906A8043107ADFFF74C
:104F6C00FDFD0FCD3C1D0FC42B6823704146EDE7B2
:104F7C00B9F1000F01D14946E8E77469102201A884
:104F8C0000F0FAF806238DF8143001AD04F1080393
:104F9C001834186859682A4603C20833A3421546C8
:104FAC00F7D101A906A807ADFFF7B8FD0FCD3C1D41
:104FBC000FC42B682370DEE70098FFF723F93846FF
:104FCC0015B0BDE8F0830000024B034A1A600022C2
:104FDC005A607047CCE7032044530D00232813B5C7
:104FEC0002D9002002B010BDA0F10B03022B1AD87D
:104FFC00174C2178BFF35B8F11F001010BD12046C8
:10500C000191FFF744F8019928B11248FFF73AFBD8
:10501C002046FFF741F80F4B1878FFF7DBF9002813
:10502C00DFD10120DEE7012809D800F057F8002174
:10503C00007CFFF79FF980F00100C0B2D2E709387D
:10504C000128EED8FFF774FE007CFFF75BF9F2E75E
:10505C0034E6032038E60320232838B504460D46F1
:10506C000AD8FF2908D0FFF7B9FF28B129462046F6
:10507C00BDE83840FFF7D6B838BD38B504460D4604
:10508C00FFF7D8F8FF2810D0062804D84D2323FAB0
:10509C0000F0C30709D42046FFF7A0FF28B129462A
:1050AC002046BDE83840FFF7CDB838BD38B50023F1
:1050BC00202543801423044603808560056106493E
:1050CC00284600F03AF804496060284600F035F8AC
:1050DC00E060204638BD00BF78530D0030B50F4D51
:1050EC002978BFF35B8F11F0010487B013D12846E8
:1050FC00FEF7CDFF78B101A8FFF7D8FF01AA214632
:10510C000748FFF76BFE2846FEF7C6FF054A06491F
:10511C00034800F00BF8024807B030BDD8E7032075
:10512C00DCE7032030E60320914D0D000B460146D1
:10513C00184600F005B8FEF7A8BFFEF7A4BF0000A4
:10514C0010B5054C13462CB10A4601460220AFF3AC
:10515C00008010BD2046FCE7000000000A4491428C
:10516C0000F1FF3300D1704710B511F8014B03F873
:10517C00014F9142F9D110BD02440346934200D134
:10518C00704703F8011BF9E738B50D4B1D68AB6B85
:10519C0004467BB91820FFF719FA0A4A0A4BA86390
:1051AC00C0E90023094B83600B2383810122002378
:1051BC00C0E90423AB6B00221C615A6138BD00BFEF
:1051CC00CCE503200E33CDAB34126DE6ECDE0500DE
:1051DC00034613F8012B002AFBD1181A013870472B
:1051EC001D400D0059400D0081400D0085400D0003
:1051FC0000000000000000000000000067460D00E9
:10520C005D460D0053460D0049460D003D460D0010
:10521C0031460D00BD4E0D00C54E0D0025460D004E
:10522C001D460D0013460D0009460D00F54E0D00F0
:10523C0000081018202830386170700025592D2571
:10524C006D2D25645425483A254D3A2553257A0071
:10525C0061736374696D650000000000000000005C
:10526C00A94A0D00994A0D009B4A0D000000000050
:10527C0000000000894B0D00F14B0D00C74B0D00D9
:10528C005D480D00B94B0D008B4B0D009B4B0D0079
:10529C00EB4B0D00AB4B0D00854B0D0000000000DF
:1052AC0000000000954C0D00014D0D00D94C0D0077
:1052BC005D480D00A94C0D00C54C0D00B74C0D0000
:1052CC00D34C0D00974C0D009B4C0D0000000000C2
:1052DC0000000000914D0D00DB4D0D00B34D0D0095
:1052EC00934D0D00BB4D0D00C34D0D00CB4D0D006E
:1052FC00D34D0D0000000000000000005F4E0D00BB
:10530C00554E0D004B4E0D000D4E0D001B490D0062
:10531C003F4E0D00BD4E0D00C54E0D00334E0D0021
:10532C002B4E0D00214E0D00174E0D00F54E0D00AD
:10533C0000000000000000007D4E0D00874E0D00A7
:10534C00914E0D009B4E0D00A54E0D00B14E0D0063
:10535C00BD4E0D00C54E0D00CD4E0D00D94E0D00AD
:10536C00E14E0D00EB4E0D00F54E0D00000000005F
:10537C00D5410D0071460D00D5470D0035480D0087
:10538C0029490D0039490D0059490D00694E0D0090
:04539C00D54F0D00DC
:0453A0000000000009
:1053A4005C520D00D0E50320000000000000000066
:1053B40000000000000000000000000000000000E9
:1053C40000000000000000000000000000000000D9
:1053D40000000000000000000000000000000000C9
:1053E40000000000000000000000000000000000B9
:1053F40000000000000000000000000000000000A9
:085404000000000000000000A0
:10540C00FFFFFFFF00000102030405060708090A5D
:10541C000B0C0D0E0F101112131415161718191A58
:08542C001B1C1D1E1F2028009F
:045434007856341260
:04000003D000401CCD
:00000001FF
