:02000002D0002C
:1040000000400D00D4550D00000006000C00050115
:084010000401BD0B00000000DB
:044018006C530D00D8
:10401C0009480A49884208B505D0094A824202D0AB
:10402C00121A01F053F90748074A0021121A01F03D
:10403C005BF9014808BD00BFC8E5032044550D00DD
:10404C0030E6032030E60320F0E7032070B5074E7E
:10405C00074C00F0A1FDA41BA4080025A54200D12B
:10406C0070BD56F8043B98470135F7E718550D001D
:10407C003C550D0000F038B808B500F05BF8BDE811
:10408C00084000F04BBD00F0ADBA00F0B3BA0078B8
:10409C00B0FA80F04009704701230370704710B5E7
:1040AC000446006808B100F0A5FA204610BD0000D7
:1040BC0013B50B4C2178BFF35B8F11F001010BD1C1
:1040CC0020460191FFF7E3FF019928B1054800F064
:1040DC00EDFA2046FFF7E0FF024802B010BD00BF2A
:1040EC0034E6032038E6032008B50121052001F051
:1040FC006BF800F057FE4FF4165100F047FEFFF737
:10410C00D7FF0B4A012100F02DFBFFF7D1FF012156
:10411C0000F0ECFAFFF7CCFF002100F0FAFAFFF701
:10412C00C7FFBDE808400522002100F0C9BA00BF56
:10413C0040420F0030B58BB000F034FE0368254CC4
:10414C005B699847C0B2A0F13003012B207012D8E4
:10415C000021052001F049F8FFF7AAFF0023009386
:10416C0021461D4A012300F02FFB0121052001F0FF
:10417C003CF80BB030BD3F28FBD1174D002105207A
:10418C0001F033F8FFF794FF00232A4600932146F1
:10419C00012300F019FB0121052001F026F800F0A5
:1041AC0001FE0E49044606A800F08BFB297802A8F4
:1041BC0000F0ADFB02A906A800F0D1FB0168204677
:1041CC0000F035FC02A800F031FB06A800F02EFB35
:1041DC00CFE700BF4DE603204CE6032080530D00D3
:1041EC0038B50A4C0A4BA360002503202560A58036
:1041FC00A57100F06BF90749074A204601F04EF80B
:10420C0029460120BDE8384000F068B940E603209B
:10421C000000FFFFAB400D0030E6032008B5024B59
:10422C001B689B68019308BD6802030008B5024B2C
:10423C001B68DB68019308BD6802030008B5024BDC
:10424C001B689B68019308BD2C02030008B5024B48
:10425C001B68DB68019308BD2C02030008B5024BF8
:10426C001B681B69019308BD2C02030008B5024BA7
:10427C001B685B68019308BD1802030008B5024B6C
:10428C001B685B69019308BD1802030008B5024B5B
:10429C001B685B6C019308BD4802030008B5024B18
:1042AC001B689B6C019308BD4802030008B5024BC8
:1042BC001B685B69019308BD6402030008B5024BDF
:1042CC001B681B68019308BD3C02030008B5024B38
:1042DC001B68DB68019308BD3C02030008B5024B68
:1042EC001B681B69019308BD3C02030008B5024B17
:1042FC001B685B69019308BD3C02030008B5024BC7
:10430C001B689B69019308BD3C02030008B5024B76
:10431C001B68DB69019308BD3C02030008B5024B26
:10432C001B681B6A019308BD3C02030008B5024BD5
:10433C001B689B6A019308BD3C02030008B5024B45
:10434C001B681B6A019308BD2802030008B5024BC9
:10435C001B685B6A019308BD2802030008B5024B79
:10436C001B689B6A019308BD2802030008B5024B29
:10437C001B68DB6A019308BD2802030008B5024BD9
:10438C001B681B6B019308BD2802030008B5024B88
:10439C001B685B6B019308BD2802030008B5024B38
:1043AC001B681B6C019308BD2802030008B5024B67
:1043BC001B689B68019308BD3002030008B5024BD3
:1043CC001B68DB68019308BD3002030008B5024B83
:1043DC001B681B69019308BD3002030008B5024B32
:1043EC001B68DB69019308BD3002030008B5024B62
:1043FC001B681B6A019308BD3002030008B5024B11
:10440C001B685B6A019308BD3002030008B5024BC0
:10441C001B689B6A019308BD3002030008B5024B70
:10442C001B68DB6A019308BD3002030008B5024B20
:10443C001B689B6B019308BD3002030008B5024B4F
:10444C001B681B6C019308BD3002030008B5024BBE
:10445C001B685B6C019308BD3002030008B5024B6E
:10446C001B681B68019308BD4C02030008B5024B86
:10447C001B685B68019308BD4C02030008B5024B36
:10448C001B681B69019308BD4C02030008B5024B65
:10449C001B685B69019308BD4C02030008B5024B15
:1044AC001B689B69019308BD4C02030008B5024BC5
:1044BC001B68DB69019308BD4C02030008B5024B75
:1044CC001B681B6A019308BD4C02030008B5024B24
:1044DC001B685B68019308BD2002030008B5024B02
:1044EC001B68DB6A019308BD2002030008B5034B6F
:1044FC001B68D3F88830019308BD0000200203002C
:10450C0008B5034B1B68D3F89430019308BD000029
:10451C002002030008B5024B1B685B68019308BDC1
:10452C004002030008B5024B1B689B68019308BD51
:10453C004002030008B5024B1B68DB68019308BD01
:10454C004002030008B5024B1B681B69019308BDB0
:10455C004002030008B5024B1B685B69019308BD60
:10456C004002030008B5024B1B689B69019308BD10
:10457C004002030008B5024B1B68DB69019308BDC0
:10458C004002030008B5024B1B681B6A019308BD6F
:10459C004002030008B5024B1B681B6B019308BD5E
:1045AC004002030008B5024B1B685B6B019308BD0E
:1045BC004002030008B5024B1B681B6C019308BD3D
:1045CC004002030008B5024B1B685B6C019308BDED
:1045DC004002030008B5024B1B68DB6B019308BD5E
:1045EC004402030008B5024B1B681B68019308BD0D
:1045FC001C02030008B5024B1B685B68019308BDE5
:10460C001C02030008B5024B1B689B68019308BD94
:10461C001C02030008B5024B1B685B6C019308BDC0
:10462C001C020300002240681146FFF7ABBF0022BA
:10463C0040681146FFF7B6BF40680022FFF7AABFDB
:10464C004068002281F00101FFF794BF002340680D
:10465C001A461946FFF786BF002340681A461946CA
:10466C00FFF778BF002240681146FFF76BBF0022AE
:10467C0040681146FFF756BF406800220221FFF741
:10468C0059BF002340681A46FFF744BF024B032270
:10469C005A60024A1A60704750E60320A4530D007A
:1046AC000021FFF7CBBE0021FFF7D0BE10B50446AA
:1046BC0008462170FFF792FE00236360204610BD70
:1046CC0013B504460078CDE90021FFF7E9FFDDE9D9
:1046DC000021034640B92078FFF7A0FE207802B0F5
:1046EC00BDE81040FFF7DFBF02B010BD13B50446A4
:1046FC0000780191FFF7D4FF019940B92078FFF7BA
:10470C0055FE207802B0BDE81040FFF7CCBF02B0D8
:10471C0010BD13B5044600780191FFF7C1FF019954
:10472C0040B92078FFF74AFE207802B0BDE810406F
:10473C00FFF7B9BF02B010BD400830B518600024B7
:10474C0018688842E5B206D90134082C02D040081A
:10475C001860F5E70725024B5B5D137030BD00BF99
:10476C00D8530D002DE9F04188B0002304460078A1
:10477C0002930E461746FFF793FF054600BB94F8CD
:10478C0000800146142203A800F0AEFD0B232A463C
:10479C0003A94046ADF80C30FFF730FE04988DF8B5
:1047AC00075002AB0DF1070207FB06F1FFF7C4FF40
:1047BC0020789DF80710FFF709FE2078FFF773FFAC
:1047CC00029808B0BDE8F08130B587B004460A9D68
:1047DC0000950078FFF71AFE3DB9207802A9FFF783
:1047EC0025FE9DF81430DB07F7D407B030BD000070
:1047FC0010B5094B094C022200201A60084B2060AE
:10480C00A080A071A360FFF761FE2046054A06490F
:10481C00BDE8104000F042BD64E6032058E60320DA
:10482C000000FFFF30E60320AB400D0010B504463E
:10483C000068FFF7DFFE204610BD10B50446006887
:10484C0008B1FFF7D7FE0023C4E90133236010BD84
:10485C0038B504460D4600680131FFF7D3FE10B1A0
:10486C00C4E90005012038BD10B50368044623B126
:10487C0043688B4201D3012010BD2046FFF7E8FFAF
:10488C000028F9D0A368002BF5D122681370F2E749
:10489C0037B50D46114601920446FFF7E5FF019A24
:1048AC0028B92046FFF7C9FF204603B030BDA260EF
:1048BC002946206800F00AFD2268A3680021D15423
:1048CC00F2E7002313B5C0E9003304468360037399
:1048DC0041B10846019100F03BFD0199024620468A
:1048EC00FFF7D6FF204602B010BD13B5044659B1F0
:1048FC000846019100F02CFD019902462046FFF775
:10490C00C7FF204602B010BDFFF797FFF9E713B5BC
:10491C0000238DF80410C0E900338360037301A9F0
:10492C0004468DF80530FFF7E0FF204602B010BDBD
:10493C0070B505460E4609B9002070BD6AB1846891
:10494C0014442146FFF790FF0028F5D02868AB6887
:10495C003146184400F0F4FCAC600120EDE710B5D2
:10496C008A6809680446FFF7E3FF10B92046FFF791
:10497C0064FF204610BD10B50446006808B1FFF76F
:10498C008DFC204610BD10B58368044613B103227C
:10499C0001469847204610BD10B5064C0023204612
:1049AC002360FFF773FC2046034A0449BDE810401E
:1049BC0000F074BC68E6032030E6032083490D0048
:1049CC00F8B506460D468F180024BD420CD033684E
:1049DC0015F8011B9B6830469847031E01DB1C44ED
:1049EC00F3E7002C08BF1C462046F8BD13B504465F
:1049FC00084659B1019100F0ABFC23680199DB68C2
:104A0C000246204602B0BDE81040184702B010BD67
:104A1C0003689B68184738B50D210546FFF7F8FF6A
:104A2C000A2104462846FFF7F3FF204438BD38B569
:104A3C000546FFF7DBFF04462846FFF7ECFF204452
:104A4C0038BD30B58BB000238DF82430012A98BFC7
:104A5C000A2209AC0D46B1FBF2F101FB125303F033
:104A6C00FF03092B94BF30333733DBB2AA4204F86F
:104A7C00013DEFD92146FFF7B9FF0BB030BD002344
:104A8C0040681A461946FFF765BD0000014B024A03
:104A9C001A6070476CE60320E0530D00024B1A6855
:104AAC00024B1A60704700BFC8E5032070E6032074
:104ABC0010B50446FFF767FF204610BD0348044AB3
:104ACC0004490023836000F0E9BB00BF74E60320B7
:104ADC0030E60320BD4A0D00014B1860704700BF43
:104AEC00CCE5032008B50B4B43B100F05BF9036830
:104AFC001B699847002801DDAFF30080064B43B1DA
:104B0C0000F0CEF903681B699847002801DDAFF36C
:104B1C00008008BD000000000000000008B5FFF791
:104B2C00E1FFFFF7ABFB014B186008BDD4E7032096
:104B3C000248034A0349121A00F0C8BB00F40320D0
:104B4C0004F4032040550D0007B5002300931A46CA
:104B5C006FF07701FFF7D4FC03B05DF804FB0000A5
:104B6C0007B543880A2B08D0502B0BD1094B1B6877
:104B7C004BB103B05DF804EB1847FFF7E5FF03B04A
:104B8C005DF804FB002300931A466FF07701FFF7E2
:104B9C00B7FCF4E788E6032038B5124C1248134DE5
:104BAC000021FFF737FD2368AB42114B0CBF0122EC
:104BBC0000221A7002D0FFF7BBFF2560FFF756FBEF
:104BCC00044600F099FB0B4B13B12046AFF3008069
:104BDC0000210848FFF7FEFCBDE8384006480021DC
:104BEC00FFF784BC00F40320E54A0D001E1C279A35
:104BFC0084E60320000000006D4B0D00704710B5DB
:104C0C001821044600F04FFB204610BDF0B5037D83
:104C1C00062B8DB00E4600F104074FF0000412D0A5
:104C2C0000F1080515F8011D0A223046FFF709FFAF
:104C3C00AF42044419D0002CF4D02E213046FFF79B
:104C4C00E7FE0444EEE72F236A4639460A208DF826
:104C5C000040FFF72BFB684600F07AFB33680246F6
:104C6C00DB68694630469847044620460DB0F0BDD7
:104C7C0010B5054B0446112240F8043B002100F00E
:104C8C0033FB204610BD00BF08540D000346074AF5
:104C9C0010B543F8042B01F1100251F8044B43F802
:104CAC00044B9142F9D10A781A7010BD08540D00CA
:104CBC0010B59DF8084044EA032343EA024242EA55
:104CCC00016104234160037510BD000013B5054B51
:104CDC000360CB7800938B784A780978FFF7E8FF6C
:104CEC0002B010BD08540D0041747047704708B5F0
:104CFC000021007CFFF7D2FB40EAE07008BD08B54C
:104D0C000121007CFFF7CAFB40EAE07008BD08B542
:104D1C00007CFFF7BBFB20EAE07008BD08B5007C07
:104D2C00FFF7ACFB20EAE07008BD13B50446007C2D
:104D3C000191FFF7ABFB0028019901DC607C20B1ED
:104D4C00207CFFF7B3FB20EAE07002B010BD007CC2
:104D5C00FFF7B4BB10B51421044600F0A4FA2046AA
:104D6C0010BD000010B54FF47A73044608460021BC
:104D7C00C4E90113044B23600123207463741146AE
:104D8C00FFF76CFB204610BD1C540D00007C00226C
:104D9C00FFF76CBB10B514220446002100F0A4FAF6
:104DAC00204610BD10B5104C88B003A8FFF7F2FFD9
:104DBC002178BFF35B8F11F0010111D120460191D5
:104DCC00FFF765F9019958B103AA0848FFF7CAFF24
:104DDC002046FFF761F9064A0649044800F05EFADE
:104DEC00024808B010BD00BF8CE6032090E60320FB
:104DFC0030E60320F94C0D0070474174704708B53C
:104E0C00007CFFF793FA20EAE07008BD08B5007C3F
:104E1C00FFF764FA20EAE07008BD08B5007CFFF7E4
:104E2C006DFA40EAE07008BD08B5007CFFF75EFA49
:104E3C0040EAE07008BD007CFFF768BA37B5457CE6
:104E4C0004462DB1207C03B0BDE83040FFF73EBADC
:104E5C00007C0191FFF76AFA00280199F2DC2846E0
:104E6C0003B030BD10B51421044600F01CFA2046E6
:104E7C0010BD000010B54FF0000C0446084611465A
:104E8C004FF47A72C4E901C2044A226001222074F0
:104E9C0062741A46FFF712FA204610BD4C540D00EE
:104EAC0013B50E4C2178BFF35B8F11F0010112D1B9
:104EBC0020460191FFF7EBF8019960B1084A094BC4
:104ECC000948FFF7D7FF2046FFF7E6F8074A0849DD
:104EDC00054800F0E3F9044802B010BDA4E6032035
:104EEC00A8E603202CE70320B0E7032030E60320DC
:104EFC00054E0D007047F8B5064615460C468F1842
:104F0C00BC4206D0336814F8011B9B6830469847A6
:104F1C00F6E72846F8BD007C0022FFF70FBA007CAC
:104F2C000021FFF713BA007C0021FFF717BA007CB1
:104F3C000021FFF71BBA007C0021FFF71FBA10B548
:104F4C001421044600F0AFF9204610BD10B54FF403
:104F5C007A73044608460021C4E90113034B23600D
:104F6C0020741146FFF71AFA204610BD7C540D0030
:104F7C00002240681146FFF7E5BA0022406811464E
:104F8C00FFF700BB002240681146FFF70BBB4068DF
:104F9C000022FFF7FFBA4068002281F00101FFF701
:104FAC00E9BA002340681A461946FFF7DBBA00221B
:104FBC0040681146FFF7B6BA406800220221FFF79D
:104FCC00B9BA002340681A46FFF7A4BA024B042270
:104FDC005A60024A1A607047C4E70320A4540D00BB
:104FEC00002340681A46FFF795BA40680022022158
:104FFC00FFF7A0BA002240681146FFF793BA0022CF
:10500C0040681146FFF79EBA002340681A461946BD
:10501C00FFF7A0BA002340681A461946FFF7A2BA58
:10502C0040680021FFF7C6BA40680021FFF7CABAF2
:10503C004068002281F00101FFF79CBA4068002211
:10504C00FFF7A8BA002240681146FFF7ABBA00225E
:10505C0040681146FFF796BA2DE9F043002495B04D
:10506C0016460D460746FFF703FE214618220EA8EA
:10507C00009400F039F94023CDE90C3421466B46FD
:10508C000CAA3046FFF7D2F8044600284CD1024651
:10509C0001216868FFF756FA0221804622466868AB
:1050AC00FFF750FA009E81462146002E3CD0002985
:1050BC003AD17368022B03D00A2B11D0F669F4E7AE
:1050CC00B8F1000F0AD0716906A8043107ADFFF7DB
:1050DC00FDFD0FCD3C1D0FC42B6823704146EDE741
:1050EC00B9F1000F01D14946E8E77469102201A813
:1050FC0000F0FAF806238DF8143001AD04F1080322
:10510C001834186859682A4603C20833A342154656
:10511C00F7D101A906A807ADFFF7B8FD0FCD3C1DCF
:10512C000FC42B682370DEE70098FFF777F838463A
:10513C0015B0BDE8F0830000024B034A1A60002250
:10514C005A607047CCE70320E0540D00232813B5B8
:10515C0002D9002002B010BDA0F10B03022B1AD80B
:10516C00174C2178BFF35B8F11F001010BD1204656
:10517C000191FEF78CFF019928B11248FFF796FABE
:10518C002046FEF789FF0F4B1878FFF72FF9002800
:10519C00DFD10120DEE7012809D800F057F8002103
:1051AC00007CFFF7F3F880F00100C0B2D2E70938B9
:1051BC000128EED8FFF774FE007CFFF7AFF8F2E79A
:1051CC0034E6032038E60320232838B504460D4680
:1051DC000AD8FF2908D0FFF7B9FF28B12946204685
:1051EC00BDE83840FFF72AB838BD38B504460D463F
:1051FC00FFF72CF8FF2810D0062804D84D2323FAEB
:10520C0000F0C30709D42046FFF7A0FF28B12946B8
:10521C002046BDE83840FFF721B838BD38B500232B
:10522C0020254380142304460380856005610649CC
:10523C00284600F03AF804496060284600F035F83A
:10524C00E060204638BD00BF14550D0030B50F4D41
:10525C002978BFF35B8F11F0010487B013D1284676
:10526C00FEF715FF78B101A8FFF7D8FF01AA214678
:10527C000748FFF76BFE2846FEF70EFF054A064966
:10528C00034800F00BF8024807B030BDD8E7032004
:10529C00DCE7032030E60320014F0D000B460146EE
:1052AC00184600F005B8FEF7F0BEFEF7ECBE0000A5
:1052BC0010B5054C13462CB10A4601460220AFF33B
:1052CC00008010BD2046FCE7000000000A4491421B
:1052DC0000F1FF3300D1704710B511F8014B03F802
:1052EC00014F9142F9D110BD02440346934200D1C3
:1052FC00704703F8011BF9E738B50D4B1D68AB6B14
:10530C0004467BB91820FFF76DF90A4A0A4BA863CB
:10531C00C0E90023094B83600B2383810122002306
:10532C00C0E90423AB6B00221C615A6138BD00BF7D
:10533C00CCE503200E33CDAB34126DE6ECDE05006C
:10534C00034611F8012B03F8012B002AF9D1704701
:10535C00034613F8012B002AFBD1181A01387047A9
:10536C001D400D0059400D0081400D0085400D0081
:10537C000000000043757272656E74207374617462
:10538C0065206F6620627574746F6E3A20000000A1
:10539C0000000000000000008F460D0085460D0047
:1053AC007B460D0071460D0065460D0059460D00FB
:1053BC002D500D0035500D004D460D0045460D008D
:1053CC003B460D0031460D0065500D0000081018CD
:1053DC00202830386170700025592D256D2D2564DD
:1053EC005425483A254D3A2553257A006173637448
:1053FC00696D65000000000000000000194C0D00F4
:10540C00094C0D000B4C0D000000000000000000CA
:10541C00F94C0D00614D0D00374D0D00CD490D00BF
:10542C00294D0D00FB4C0D000B4D0D005B4D0D007F
:10543C001B4D0D00F54C0D0000000000000000009D
:10544C00054E0D00714E0D00494E0D00CD490D005D
:10545C00194E0D00354E0D00274E0D00434E0D001C
:10546C00074E0D000B4E0D00000000000000000068
:10547C00014F0D004B4F0D00234F0D00034F0D003E
:10548C002B4F0D00334F0D003B4F0D00434F0D00C4
:10549C000000000000000000CF4F0D00C54F0D00B4
:1054AC00BB4F0D007D4F0D008B4A0D00AF4F0D0013
:1054BC002D500D0035500D00A34F0D009B4F0D00CE
:1054CC00914F0D00874F0D0065500D00000000003E
:1054DC0000000000ED4F0D00F74F0D0001500D00C6
:1054EC000B500D0015500D0021500D002D500D00CE
:1054FC0035500D003D500D0049500D0051500D0020
:10550C005B500D0065500D0000000000ED410D00DA
:10551C0099460D00FD470D00A5490D00994A0D0057
:10552C00A94A0D00C94A0D00D94F0D0045510D0077
:04553C00000000006B
:045540000000000067
:10554400F8530D00D0E50320000000000000000027
:105554000000000000000000000000000000000047
:105564000000000000000000000000000000000037
:105574000000000000000000000000000000000027
:105584000000000000000000000000000000000017
:105594000000000000000000000000000000000007
:0855A4000000000000000000FF
:1055AC00FFFFFFFF00000102030405060708090ABC
:1055BC000B0C0D0E0F101112131415161718191AB7
:0855CC001B1C1D1E1F202800FE
:0455D40078563412BF
:04000003D000401CCD
:00000001FF
